{
  "contractName": "Social",
  "abi": [
    {
      "constant": false,
      "inputs": [
        {
          "name": "spender",
          "type": "address"
        },
        {
          "name": "value",
          "type": "uint256"
        }
      ],
      "name": "approve",
      "outputs": [
        {
          "name": "",
          "type": "bool"
        }
      ],
      "payable": false,
      "stateMutability": "nonpayable",
      "type": "function"
    },
    {
      "constant": true,
      "inputs": [],
      "name": "totalSupply",
      "outputs": [
        {
          "name": "",
          "type": "uint256"
        }
      ],
      "payable": false,
      "stateMutability": "view",
      "type": "function"
    },
    {
      "constant": false,
      "inputs": [
        {
          "name": "sender",
          "type": "address"
        },
        {
          "name": "recipient",
          "type": "address"
        },
        {
          "name": "amount",
          "type": "uint256"
        }
      ],
      "name": "transferFrom",
      "outputs": [
        {
          "name": "",
          "type": "bool"
        }
      ],
      "payable": false,
      "stateMutability": "nonpayable",
      "type": "function"
    },
    {
      "constant": false,
      "inputs": [
        {
          "name": "spender",
          "type": "address"
        },
        {
          "name": "addedValue",
          "type": "uint256"
        }
      ],
      "name": "increaseAllowance",
      "outputs": [
        {
          "name": "",
          "type": "bool"
        }
      ],
      "payable": false,
      "stateMutability": "nonpayable",
      "type": "function"
    },
    {
      "constant": false,
      "inputs": [],
      "name": "unpause",
      "outputs": [],
      "payable": false,
      "stateMutability": "nonpayable",
      "type": "function"
    },
    {
      "constant": true,
      "inputs": [],
      "name": "paused",
      "outputs": [
        {
          "name": "",
          "type": "bool"
        }
      ],
      "payable": false,
      "stateMutability": "view",
      "type": "function"
    },
    {
      "constant": true,
      "inputs": [
        {
          "name": "account",
          "type": "address"
        }
      ],
      "name": "balanceOf",
      "outputs": [
        {
          "name": "",
          "type": "uint256"
        }
      ],
      "payable": false,
      "stateMutability": "view",
      "type": "function"
    },
    {
      "constant": false,
      "inputs": [],
      "name": "renounceOwnership",
      "outputs": [],
      "payable": false,
      "stateMutability": "nonpayable",
      "type": "function"
    },
    {
      "constant": true,
      "inputs": [],
      "name": "voluntaryGasAdvance",
      "outputs": [
        {
          "name": "",
          "type": "uint256"
        }
      ],
      "payable": false,
      "stateMutability": "view",
      "type": "function"
    },
    {
      "constant": true,
      "inputs": [],
      "name": "tokenPrice",
      "outputs": [
        {
          "name": "",
          "type": "uint256"
        }
      ],
      "payable": false,
      "stateMutability": "view",
      "type": "function"
    },
    {
      "constant": false,
      "inputs": [],
      "name": "pause",
      "outputs": [],
      "payable": false,
      "stateMutability": "nonpayable",
      "type": "function"
    },
    {
      "constant": true,
      "inputs": [
        {
          "name": "account",
          "type": "address"
        }
      ],
      "name": "getHomelessMap",
      "outputs": [
        {
          "name": "",
          "type": "bool"
        }
      ],
      "payable": false,
      "stateMutability": "view",
      "type": "function"
    },
    {
      "constant": true,
      "inputs": [],
      "name": "owner",
      "outputs": [
        {
          "name": "",
          "type": "address"
        }
      ],
      "payable": false,
      "stateMutability": "view",
      "type": "function"
    },
    {
      "constant": true,
      "inputs": [],
      "name": "isOwner",
      "outputs": [
        {
          "name": "",
          "type": "bool"
        }
      ],
      "payable": false,
      "stateMutability": "view",
      "type": "function"
    },
    {
      "constant": false,
      "inputs": [
        {
          "name": "spender",
          "type": "address"
        },
        {
          "name": "subtractedValue",
          "type": "uint256"
        }
      ],
      "name": "decreaseAllowance",
      "outputs": [
        {
          "name": "",
          "type": "bool"
        }
      ],
      "payable": false,
      "stateMutability": "nonpayable",
      "type": "function"
    },
    {
      "constant": false,
      "inputs": [
        {
          "name": "recipient",
          "type": "address"
        },
        {
          "name": "amount",
          "type": "uint256"
        }
      ],
      "name": "transfer",
      "outputs": [
        {
          "name": "",
          "type": "bool"
        }
      ],
      "payable": false,
      "stateMutability": "nonpayable",
      "type": "function"
    },
    {
      "constant": false,
      "inputs": [
        {
          "name": "sender",
          "type": "address"
        }
      ],
      "name": "initializePausable",
      "outputs": [],
      "payable": false,
      "stateMutability": "nonpayable",
      "type": "function"
    },
    {
      "constant": false,
      "inputs": [
        {
          "name": "sender",
          "type": "address"
        }
      ],
      "name": "initializeOwnable",
      "outputs": [],
      "payable": false,
      "stateMutability": "nonpayable",
      "type": "function"
    },
    {
      "constant": true,
      "inputs": [
        {
          "name": "owner",
          "type": "address"
        },
        {
          "name": "spender",
          "type": "address"
        }
      ],
      "name": "allowance",
      "outputs": [
        {
          "name": "",
          "type": "uint256"
        }
      ],
      "payable": false,
      "stateMutability": "view",
      "type": "function"
    },
    {
      "constant": false,
      "inputs": [
        {
          "name": "newOwner",
          "type": "address"
        }
      ],
      "name": "transferOwnership",
      "outputs": [],
      "payable": false,
      "stateMutability": "nonpayable",
      "type": "function"
    },
    {
      "payable": false,
      "stateMutability": "nonpayable",
      "type": "fallback"
    },
    {
      "anonymous": false,
      "inputs": [
        {
          "indexed": false,
          "name": "account",
          "type": "address"
        }
      ],
      "name": "Paused",
      "type": "event"
    },
    {
      "anonymous": false,
      "inputs": [
        {
          "indexed": false,
          "name": "account",
          "type": "address"
        }
      ],
      "name": "Unpaused",
      "type": "event"
    },
    {
      "anonymous": false,
      "inputs": [
        {
          "indexed": true,
          "name": "previousOwner",
          "type": "address"
        },
        {
          "indexed": true,
          "name": "newOwner",
          "type": "address"
        }
      ],
      "name": "OwnershipTransferred",
      "type": "event"
    },
    {
      "anonymous": false,
      "inputs": [
        {
          "indexed": true,
          "name": "from",
          "type": "address"
        },
        {
          "indexed": true,
          "name": "to",
          "type": "address"
        },
        {
          "indexed": false,
          "name": "value",
          "type": "uint256"
        }
      ],
      "name": "Transfer",
      "type": "event"
    },
    {
      "anonymous": false,
      "inputs": [
        {
          "indexed": true,
          "name": "owner",
          "type": "address"
        },
        {
          "indexed": true,
          "name": "spender",
          "type": "address"
        },
        {
          "indexed": false,
          "name": "value",
          "type": "uint256"
        }
      ],
      "name": "Approval",
      "type": "event"
    },
    {
      "constant": false,
      "inputs": [],
      "name": "initialize",
      "outputs": [],
      "payable": false,
      "stateMutability": "nonpayable",
      "type": "function"
    },
    {
      "constant": false,
      "inputs": [
        {
          "name": "amount",
          "type": "uint256"
        }
      ],
      "name": "buyToken",
      "outputs": [],
      "payable": true,
      "stateMutability": "payable",
      "type": "function"
    },
    {
      "constant": false,
      "inputs": [
        {
          "name": "amount",
          "type": "uint256"
        },
        {
          "name": "receiverAddress",
          "type": "string"
        }
      ],
      "name": "donateToken",
      "outputs": [],
      "payable": false,
      "stateMutability": "nonpayable",
      "type": "function"
    },
    {
      "constant": false,
      "inputs": [
        {
          "name": "amount",
          "type": "uint256"
        },
        {
          "name": "vendorAddress",
          "type": "string"
        },
        {
          "name": "basketItems",
          "type": "uint256[]"
        }
      ],
      "name": "spendToken",
      "outputs": [],
      "payable": false,
      "stateMutability": "nonpayable",
      "type": "function"
    },
    {
      "constant": false,
      "inputs": [
        {
          "name": "amount",
          "type": "uint256"
        }
      ],
      "name": "withdraw",
      "outputs": [],
      "payable": false,
      "stateMutability": "nonpayable",
      "type": "function"
    },
    {
      "constant": false,
      "inputs": [
        {
          "name": "vendorAddress",
          "type": "address"
        }
      ],
      "name": "approveVendor",
      "outputs": [],
      "payable": false,
      "stateMutability": "nonpayable",
      "type": "function"
    },
    {
      "constant": false,
      "inputs": [
        {
          "name": "blacklist",
          "type": "uint256[]"
        }
      ],
      "name": "registerVendor",
      "outputs": [],
      "payable": false,
      "stateMutability": "nonpayable",
      "type": "function"
    },
    {
      "constant": false,
      "inputs": [
        {
          "name": "vendorAddress",
          "type": "address"
        }
      ],
      "name": "deleteVendor",
      "outputs": [],
      "payable": false,
      "stateMutability": "nonpayable",
      "type": "function"
    },
    {
      "constant": false,
      "inputs": [
        {
          "name": "newItems",
          "type": "uint256[]"
        }
      ],
      "name": "addToBlacklist",
      "outputs": [],
      "payable": false,
      "stateMutability": "nonpayable",
      "type": "function"
    },
    {
      "constant": false,
      "inputs": [
        {
          "name": "oldItems",
          "type": "uint256[]"
        }
      ],
      "name": "deleteFromBlacklist",
      "outputs": [],
      "payable": false,
      "stateMutability": "nonpayable",
      "type": "function"
    },
    {
      "constant": true,
      "inputs": [
        {
          "name": "vendorAddress",
          "type": "string"
        },
        {
          "name": "itemID",
          "type": "uint256"
        }
      ],
      "name": "getBlacklistItem",
      "outputs": [
        {
          "name": "",
          "type": "bool"
        }
      ],
      "payable": false,
      "stateMutability": "view",
      "type": "function"
    }
  ],
  "bytecode": "0x6080604052614474806100136000396000f3fe6080604052600436106101d85760003560e01c80638129fc1c11610102578063a9059cbb11610095578063dd62ed3e11610064578063dd62ed3e14610b2b578063f2fde38b14610bb0578063f8a5292314610c01578063fdb0ee0e14610c52576101d8565b8063a9059cbb1461096e578063b21f2d3b146109e1578063c9a6964a14610a32578063da3eb14f14610a83576101d8565b80638da5cb5b116100d15780638da5cb5b146108245780638f32d59b1461087b578063a457c2d7146108aa578063a6c6e7cf1461091d576101d8565b80638129fc1c146106fd5780638456cb591461071457806389e610dc1461072b5780638ada2a5214610794576101d8565b80633f4ba83a1161017a578063715018a611610149578063715018a6146105ab57806376bd971f146105c2578063783b1de9146105ed5780637ff9b596146106d2576101d8565b80633f4ba83a1461047a5780635c975abb146104915780635c983aec146104c057806370a0823114610546576101d8565b806323b872dd116101b657806323b872dd1461030b5780632d296bf11461039e5780632e1a7d4d146103cc5780633950935114610407576101d8565b8063095ea7b3146101e757806318160ddd1461025a578063198724e414610285575b3480156101e457600080fd5b50005b3480156101f357600080fd5b506102406004803603604081101561020a57600080fd5b81019080803573ffffffffffffffffffffffffffffffffffffffff16906020019092919080359060200190929190505050610d17565b604051808215151515815260200191505060405180910390f35b34801561026657600080fd5b5061026f610d35565b6040518082815260200191505060405180910390f35b34801561029157600080fd5b50610309600480360360208110156102a857600080fd5b81019080803590602001906401000000008111156102c557600080fd5b8201836020820111156102d757600080fd5b803590602001918460208302840111640100000000831117156102f957600080fd5b9091929391929390505050610d3f565b005b34801561031757600080fd5b506103846004803603606081101561032e57600080fd5b81019080803573ffffffffffffffffffffffffffffffffffffffff169060200190929190803573ffffffffffffffffffffffffffffffffffffffff16906020019092919080359060200190929190505050610f36565b604051808215151515815260200191505060405180910390f35b6103ca600480360360208110156103b457600080fd5b8101908080359060200190929190505050611185565b005b3480156103d857600080fd5b50610405600480360360208110156103ef57600080fd5b81019080803590602001909291905050506112ba565b005b34801561041357600080fd5b506104606004803603604081101561042a57600080fd5b81019080803573ffffffffffffffffffffffffffffffffffffffff169060200190929190803590602001909291905050506114ec565b604051808215151515815260200191505060405180910390f35b34801561048657600080fd5b5061048f61159f565b005b34801561049d57600080fd5b506104a6611722565b604051808215151515815260200191505060405180910390f35b3480156104cc57600080fd5b50610544600480360360208110156104e357600080fd5b810190808035906020019064010000000081111561050057600080fd5b82018360208201111561051257600080fd5b8035906020019184602083028401116401000000008311171561053457600080fd5b9091929391929390505050611739565b005b34801561055257600080fd5b506105956004803603602081101561056957600080fd5b81019080803573ffffffffffffffffffffffffffffffffffffffff169060200190929190505050611930565b6040518082815260200191505060405180910390f35b3480156105b757600080fd5b506105c0611979565b005b3480156105ce57600080fd5b506105d7611ab4565b6040518082815260200191505060405180910390f35b3480156105f957600080fd5b506106d06004803603606081101561061057600080fd5b81019080803590602001909291908035906020019064010000000081111561063757600080fd5b82018360208201111561064957600080fd5b8035906020019184600183028401116401000000008311171561066b57600080fd5b90919293919293908035906020019064010000000081111561068c57600080fd5b82018360208201111561069e57600080fd5b803590602001918460208302840111640100000000831117156106c057600080fd5b9091929391929390505050611aba565b005b3480156106de57600080fd5b506106e7611dbe565b6040518082815260200191505060405180910390f35b34801561070957600080fd5b50610712611dc4565b005b34801561072057600080fd5b506107296121aa565b005b34801561073757600080fd5b5061077a6004803603602081101561074e57600080fd5b81019080803573ffffffffffffffffffffffffffffffffffffffff16906020019092919050505061232e565b604051808215151515815260200191505060405180910390f35b3480156107a057600080fd5b50610822600480360360408110156107b757600080fd5b8101908080359060200190929190803590602001906401000000008111156107de57600080fd5b8201836020820111156107f057600080fd5b8035906020019184600183028401116401000000008311171561081257600080fd5b9091929391929390505050612384565b005b34801561083057600080fd5b506108396125f8565b604051808273ffffffffffffffffffffffffffffffffffffffff1673ffffffffffffffffffffffffffffffffffffffff16815260200191505060405180910390f35b34801561088757600080fd5b50610890612622565b604051808215151515815260200191505060405180910390f35b3480156108b657600080fd5b50610903600480360360408110156108cd57600080fd5b81019080803573ffffffffffffffffffffffffffffffffffffffff16906020019092919080359060200190929190505050612681565b604051808215151515815260200191505060405180910390f35b34801561092957600080fd5b5061096c6004803603602081101561094057600080fd5b81019080803573ffffffffffffffffffffffffffffffffffffffff169060200190929190505050612734565b005b34801561097a57600080fd5b506109c76004803603604081101561099157600080fd5b81019080803573ffffffffffffffffffffffffffffffffffffffff169060200190929190803590602001909291905050506128e4565b604051808215151515815260200191505060405180910390f35b3480156109ed57600080fd5b50610a3060048036036020811015610a0457600080fd5b81019080803573ffffffffffffffffffffffffffffffffffffffff169060200190929190505050612a99565b005b348015610a3e57600080fd5b50610a8160048036036020811015610a5557600080fd5b81019080803573ffffffffffffffffffffffffffffffffffffffff169060200190929190505050612bbd565b005b348015610a8f57600080fd5b50610b1160048036036040811015610aa657600080fd5b8101908080359060200190640100000000811115610ac357600080fd5b820183602082011115610ad557600080fd5b80359060200191846001830284011164010000000083111715610af757600080fd5b909192939192939080359060200190929190505050612d7b565b604051808215151515815260200191505060405180910390f35b348015610b3757600080fd5b50610b9a60048036036040811015610b4e57600080fd5b81019080803573ffffffffffffffffffffffffffffffffffffffff169060200190929190803573ffffffffffffffffffffffffffffffffffffffff169060200190929190505050612eb9565b6040518082815260200191505060405180910390f35b348015610bbc57600080fd5b50610bff60048036036020811015610bd357600080fd5b81019080803573ffffffffffffffffffffffffffffffffffffffff169060200190929190505050612f40565b005b348015610c0d57600080fd5b50610c5060048036036020811015610c2457600080fd5b81019080803573ffffffffffffffffffffffffffffffffffffffff169060200190929190505050612fc6565b005b348015610c5e57600080fd5b50610d1560048036036020811015610c7557600080fd5b8101908080359060200190640100000000811115610c9257600080fd5b820183602082011115610ca457600080fd5b80359060200191846020830284011164010000000083111715610cc657600080fd5b919080806020026020016040519081016040528093929190818152602001838360200280828437600081840152601f19601f82011690508083019250505050505050919291929050505061311e565b005b6000610d2b610d246133d1565b84846133d9565b6001905092915050565b6000603654905090565b610d476133d1565b6001151560d260008373ffffffffffffffffffffffffffffffffffffffff1673ffffffffffffffffffffffffffffffffffffffff16815260200190815260200160002060009054906101000a900460ff16151514610e0d576040517f08c379a00000000000000000000000000000000000000000000000000000000081526004018080602001828103825260168152602001807f43616c6c6572206973206e6f7420612076656e646f720000000000000000000081525060200191505060405180910390fd5b609c60009054906101000a900460ff1615610e90576040517f08c379a00000000000000000000000000000000000000000000000000000000081526004018080602001828103825260108152602001807f5061757361626c653a207061757365640000000000000000000000000000000081525060200191505060405180910390fd5b60008090505b83839050811015610f3057600060d16000610eaf6133d1565b73ffffffffffffffffffffffffffffffffffffffff1673ffffffffffffffffffffffffffffffffffffffff1681526020019081526020016000206000868685818110610ef757fe5b90506020020135815260200190815260200160002060006101000a81548160ff0219169083151502179055508080600101915050610e96565b50505050565b60008360001515603560008373ffffffffffffffffffffffffffffffffffffffff1673ffffffffffffffffffffffffffffffffffffffff16815260200190815260200160002060009054906101000a900460ff16151514610fff576040517f08c379a00000000000000000000000000000000000000000000000000000000081526004018080602001828103825260148152602001807f43616c6c6572206973206120686f6d656c65737300000000000000000000000081525060200191505060405180910390fd5b8360001515603560008373ffffffffffffffffffffffffffffffffffffffff1673ffffffffffffffffffffffffffffffffffffffff16815260200190815260200160002060009054906101000a900460ff161515146110c6576040517f08c379a00000000000000000000000000000000000000000000000000000000081526004018080602001828103825260148152602001807f43616c6c6572206973206120686f6d656c65737300000000000000000000000081525060200191505060405180910390fd5b6110d18686866135d0565b611178866110dd6133d1565b61117387603460008c73ffffffffffffffffffffffffffffffffffffffff1673ffffffffffffffffffffffffffffffffffffffff168152602001908152602001600020600061112a6133d1565b73ffffffffffffffffffffffffffffffffffffffff1673ffffffffffffffffffffffffffffffffffffffff1681526020019081526020016000205461387090919063ffffffff16565b6133d9565b6001925050509392505050565b609c60009054906101000a900460ff1615611208576040517f08c379a00000000000000000000000000000000000000000000000000000000081526004018080602001828103825260108152602001807f5061757361626c653a207061757365640000000000000000000000000000000081525060200191505060405180910390fd5b61123161122260d05460cf546138f990919063ffffffff16565b8261398190919063ffffffff16565b3410156112a6576040517f08c379a00000000000000000000000000000000000000000000000000000000081526004018080602001828103825260158152602001807f4e6f7420656e6f7567682066756e64732073656e74000000000000000000000081525060200191505060405180910390fd5b6112b76112b16133d1565b82613a07565b50565b6112c26133d1565b6001151560d260008373ffffffffffffffffffffffffffffffffffffffff1673ffffffffffffffffffffffffffffffffffffffff16815260200190815260200160002060009054906101000a900460ff16151514611388576040517f08c379a00000000000000000000000000000000000000000000000000000000081526004018080602001828103825260168152602001807f43616c6c6572206973206e6f7420612076656e646f720000000000000000000081525060200191505060405180910390fd5b609c60009054906101000a900460ff161561140b576040517f08c379a00000000000000000000000000000000000000000000000000000000081526004018080602001828103825260108152602001807f5061757361626c653a207061757365640000000000000000000000000000000081525060200191505060405180910390fd5b6114208260cf5461398190919063ffffffff16565b3073ffffffffffffffffffffffffffffffffffffffff163110156114ac576040517f08c379a000000000000000000000000000000000000000000000000000000000815260040180806020018281038252601a8152602001807f4e6f7420656e6f7567682066756e647320617661696c61626c6500000000000081525060200191505060405180910390fd5b6114bd6114b76133d1565b83613bc4565b60006114c76133d1565b90506114e7816114e28560cf5461398190919063ffffffff16565b613d64565b505050565b60006115956114f96133d1565b84611590856034600061150a6133d1565b73ffffffffffffffffffffffffffffffffffffffff1673ffffffffffffffffffffffffffffffffffffffff16815260200190815260200160002060008973ffffffffffffffffffffffffffffffffffffffff1673ffffffffffffffffffffffffffffffffffffffff168152602001908152602001600020546138f990919063ffffffff16565b6133d9565b6001905092915050565b6115a7612622565b611619576040517f08c379a00000000000000000000000000000000000000000000000000000000081526004018080602001828103825260208152602001807f4f776e61626c653a2063616c6c6572206973206e6f7420746865206f776e657281525060200191505060405180910390fd5b609c60009054906101000a900460ff1661169b576040517f08c379a00000000000000000000000000000000000000000000000000000000081526004018080602001828103825260148152602001807f5061757361626c653a206e6f742070617573656400000000000000000000000081525060200191505060405180910390fd5b6000609c60006101000a81548160ff0219169083151502179055507f5db9ee0a495bf2e6ff9c91a7834c1ba4fdd244a5e8aa4e537bd38aeae4b073aa6116df6133d1565b604051808273ffffffffffffffffffffffffffffffffffffffff1673ffffffffffffffffffffffffffffffffffffffff16815260200191505060405180910390a1565b6000609c60009054906101000a900460ff16905090565b6117416133d1565b6001151560d260008373ffffffffffffffffffffffffffffffffffffffff1673ffffffffffffffffffffffffffffffffffffffff16815260200190815260200160002060009054906101000a900460ff16151514611807576040517f08c379a00000000000000000000000000000000000000000000000000000000081526004018080602001828103825260168152602001807f43616c6c6572206973206e6f7420612076656e646f720000000000000000000081525060200191505060405180910390fd5b609c60009054906101000a900460ff161561188a576040517f08c379a00000000000000000000000000000000000000000000000000000000081526004018080602001828103825260108152602001807f5061757361626c653a207061757365640000000000000000000000000000000081525060200191505060405180910390fd5b60008090505b8383905081101561192a57600160d160006118a96133d1565b73ffffffffffffffffffffffffffffffffffffffff1673ffffffffffffffffffffffffffffffffffffffff16815260200190815260200160002060008686858181106118f157fe5b90506020020135815260200190815260200160002060006101000a81548160ff0219169083151502179055508080600101915050611890565b50505050565b6000603360008373ffffffffffffffffffffffffffffffffffffffff1673ffffffffffffffffffffffffffffffffffffffff168152602001908152602001600020549050919050565b611981612622565b6119f3576040517f08c379a00000000000000000000000000000000000000000000000000000000081526004018080602001828103825260208152602001807f4f776e61626c653a2063616c6c6572206973206e6f7420746865206f776e657281525060200191505060405180910390fd5b600073ffffffffffffffffffffffffffffffffffffffff16606960009054906101000a900473ffffffffffffffffffffffffffffffffffffffff1673ffffffffffffffffffffffffffffffffffffffff167f8be0079c531659141344cd1fd0a4f28419497f9722a3daafe3b4186f6b6457e060405160405180910390a36000606960006101000a81548173ffffffffffffffffffffffffffffffffffffffff021916908373ffffffffffffffffffffffffffffffffffffffff160217905550565b60d05481565b611b0784848080601f016020809104026020016040519081016040528093929190818152602001838380828437600081840152601f19601f82011690508083019250505050505050613eb5565b6001151560d260008373ffffffffffffffffffffffffffffffffffffffff1673ffffffffffffffffffffffffffffffffffffffff16815260200190815260200160002060009054906101000a900460ff16151514611bcd576040517f08c379a00000000000000000000000000000000000000000000000000000000081526004018080602001828103825260168152602001807f43616c6c6572206973206e6f7420612076656e646f720000000000000000000081525060200191505060405180910390fd5b609c60009054906101000a900460ff1615611c50576040517f08c379a00000000000000000000000000000000000000000000000000000000081526004018080602001828103825260108152602001807f5061757361626c653a207061757365640000000000000000000000000000000081525060200191505060405180910390fd5b6000611c9f86868080601f016020809104026020016040519081016040528093929190818152602001838380828437600081840152601f19601f82011690508083019250505050505050613eb5565b905060008090505b84849050811015611da25760d160008373ffffffffffffffffffffffffffffffffffffffff1673ffffffffffffffffffffffffffffffffffffffff1681526020019081526020016000206000868684818110611cff57fe5b90506020020135815260200190815260200160002060009054906101000a900460ff1615611d95576040517f08c379a00000000000000000000000000000000000000000000000000000000081526004018080602001828103825260168152602001807f4e6f20616c632c206e6f2063696761726574746573210000000000000000000081525060200191505060405180910390fd5b8080600101915050611ca7565b50611db5611dae6133d1565b82896135d0565b50505050505050565b60cf5481565b600060019054906101000a900460ff1680611de35750611de261410e565b5b80611dfa57506000809054906101000a900460ff16155b611e4f576040517f08c379a000000000000000000000000000000000000000000000000000000000815260040180806020018281038252602e8152602001806143b1602e913960400191505060405180910390fd5b60008060019054906101000a900460ff161590508015611e9f576001600060016101000a81548160ff02191690831515021790555060016000806101000a81548160ff0219169083151502179055505b611eaf611eaa6133d1565b612a99565b600160d260007396c65a2b5ef50bc13f227a1f3c285e5045a4664b73ffffffffffffffffffffffffffffffffffffffff1673ffffffffffffffffffffffffffffffffffffffff16815260200190815260200160002060006101000a81548160ff021916908315150217905550600160d26000739ea5cb0a3162a50bf5cdd694451a21b557b1967d73ffffffffffffffffffffffffffffffffffffffff1673ffffffffffffffffffffffffffffffffffffffff16815260200190815260200160002060006101000a81548160ff021916908315150217905550600160d260007330dff58c12349297fea380a95b59211367de8e7273ffffffffffffffffffffffffffffffffffffffff1673ffffffffffffffffffffffffffffffffffffffff16815260200190815260200160002060006101000a81548160ff021916908315150217905550600160d160007396c65a2b5ef50bc13f227a1f3c285e5045a4664b73ffffffffffffffffffffffffffffffffffffffff1673ffffffffffffffffffffffffffffffffffffffff1681526020019081526020016000206000600a815260200190815260200160002060006101000a81548160ff021916908315150217905550600160d160007396c65a2b5ef50bc13f227a1f3c285e5045a4664b73ffffffffffffffffffffffffffffffffffffffff1673ffffffffffffffffffffffffffffffffffffffff1681526020019081526020016000206000600b815260200190815260200160002060006101000a81548160ff021916908315150217905550600160d160007396c65a2b5ef50bc13f227a1f3c285e5045a4664b73ffffffffffffffffffffffffffffffffffffffff1673ffffffffffffffffffffffffffffffffffffffff1681526020019081526020016000206000600c815260200190815260200160002060006101000a81548160ff021916908315150217905550650574fbde600060cf8190555064333905980060d08190555080156121a75760008060016101000a81548160ff0219169083151502179055505b50565b6121b2612622565b612224576040517f08c379a00000000000000000000000000000000000000000000000000000000081526004018080602001828103825260208152602001807f4f776e61626c653a2063616c6c6572206973206e6f7420746865206f776e657281525060200191505060405180910390fd5b609c60009054906101000a900460ff16156122a7576040517f08c379a00000000000000000000000000000000000000000000000000000000081526004018080602001828103825260108152602001807f5061757361626c653a207061757365640000000000000000000000000000000081525060200191505060405180910390fd5b6001609c60006101000a81548160ff0219169083151502179055507f62e78cea01bee320cd4e420270b5ea74000d11b0c9f74754ebdbfc544b05a2586122eb6133d1565b604051808273ffffffffffffffffffffffffffffffffffffffff1673ffffffffffffffffffffffffffffffffffffffff16815260200191505060405180910390a1565b6000603560008373ffffffffffffffffffffffffffffffffffffffff1673ffffffffffffffffffffffffffffffffffffffff16815260200190815260200160002060009054906101000a900460ff169050919050565b609c60009054906101000a900460ff1615612407576040517f08c379a00000000000000000000000000000000000000000000000000000000081526004018080602001828103825260108152602001807f5061757361626c653a207061757365640000000000000000000000000000000081525060200191505060405180910390fd5b61240f6133d1565b60001515603560008373ffffffffffffffffffffffffffffffffffffffff1673ffffffffffffffffffffffffffffffffffffffff16815260200190815260200160002060009054906101000a900460ff161515146124d5576040517f08c379a00000000000000000000000000000000000000000000000000000000081526004018080602001828103825260148152602001807f43616c6c6572206973206120686f6d656c65737300000000000000000000000081525060200191505060405180910390fd5b600061252484848080601f016020809104026020016040519081016040528093929190818152602001838380828437600081840152601f19601f82011690508083019250505050505050613eb5565b90508073ffffffffffffffffffffffffffffffffffffffff166125456133d1565b73ffffffffffffffffffffffffffffffffffffffff1614156125b2576040517f08c379a000000000000000000000000000000000000000000000000000000000815260040180806020018281038252602a815260200180614366602a913960400191505060405180910390fd5b6125bb8161411f565b6125cd6125c66133d1565b82876135d0565b60008190506125f0816125eb8860d05461398190919063ffffffff16565b613d64565b505050505050565b6000606960009054906101000a900473ffffffffffffffffffffffffffffffffffffffff16905090565b6000606960009054906101000a900473ffffffffffffffffffffffffffffffffffffffff1673ffffffffffffffffffffffffffffffffffffffff166126656133d1565b73ffffffffffffffffffffffffffffffffffffffff1614905090565b600061272a61268e6133d1565b84612725856034600061269f6133d1565b73ffffffffffffffffffffffffffffffffffffffff1673ffffffffffffffffffffffffffffffffffffffff16815260200190815260200160002060008973ffffffffffffffffffffffffffffffffffffffff1673ffffffffffffffffffffffffffffffffffffffff1681526020019081526020016000205461387090919063ffffffff16565b6133d9565b6001905092915050565b61273c612622565b6127ae576040517f08c379a00000000000000000000000000000000000000000000000000000000081526004018080602001828103825260208152602001807f4f776e61626c653a2063616c6c6572206973206e6f7420746865206f776e657281525060200191505060405180910390fd5b609c60009054906101000a900460ff1615612831576040517f08c379a00000000000000000000000000000000000000000000000000000000081526004018080602001828103825260108152602001807f5061757361626c653a207061757365640000000000000000000000000000000081525060200191505060405180910390fd5b600060d260008373ffffffffffffffffffffffffffffffffffffffff1673ffffffffffffffffffffffffffffffffffffffff16815260200190815260200160002060006101000a81548160ff021916908315150217905550600060d360008373ffffffffffffffffffffffffffffffffffffffff1673ffffffffffffffffffffffffffffffffffffffff16815260200190815260200160002060006101000a81548160ff02191690831515021790555050565b60006128ee6133d1565b60001515603560008373ffffffffffffffffffffffffffffffffffffffff1673ffffffffffffffffffffffffffffffffffffffff16815260200190815260200160002060009054906101000a900460ff161515146129b4576040517f08c379a00000000000000000000000000000000000000000000000000000000081526004018080602001828103825260148152602001807f43616c6c6572206973206120686f6d656c65737300000000000000000000000081525060200191505060405180910390fd5b8360001515603560008373ffffffffffffffffffffffffffffffffffffffff1673ffffffffffffffffffffffffffffffffffffffff16815260200190815260200160002060009054906101000a900460ff16151514612a7b576040517f08c379a00000000000000000000000000000000000000000000000000000000081526004018080602001828103825260148152602001807f43616c6c6572206973206120686f6d656c65737300000000000000000000000081525060200191505060405180910390fd5b612a8d612a866133d1565b86866135d0565b60019250505092915050565b600060019054906101000a900460ff1680612ab85750612ab761410e565b5b80612acf57506000809054906101000a900460ff16155b612b24576040517f08c379a000000000000000000000000000000000000000000000000000000000815260040180806020018281038252602e8152602001806143b1602e913960400191505060405180910390fd5b60008060019054906101000a900460ff161590508015612b74576001600060016101000a81548160ff02191690831515021790555060016000806101000a81548160ff0219169083151502179055505b612b7d82612bbd565b6000609c60006101000a81548160ff0219169083151502179055508015612bb95760008060016101000a81548160ff0219169083151502179055505b5050565b600060019054906101000a900460ff1680612bdc5750612bdb61410e565b5b80612bf357506000809054906101000a900460ff16155b612c48576040517f08c379a000000000000000000000000000000000000000000000000000000000815260040180806020018281038252602e8152602001806143b1602e913960400191505060405180910390fd5b60008060019054906101000a900460ff161590508015612c98576001600060016101000a81548160ff02191690831515021790555060016000806101000a81548160ff0219169083151502179055505b81606960006101000a81548173ffffffffffffffffffffffffffffffffffffffff021916908373ffffffffffffffffffffffffffffffffffffffff160217905550606960009054906101000a900473ffffffffffffffffffffffffffffffffffffffff1673ffffffffffffffffffffffffffffffffffffffff16600073ffffffffffffffffffffffffffffffffffffffff167f8be0079c531659141344cd1fd0a4f28419497f9722a3daafe3b4186f6b6457e060405160405180910390a38015612d775760008060016101000a81548160ff0219169083151502179055505b5050565b6000609c60009054906101000a900460ff1615612e00576040517f08c379a00000000000000000000000000000000000000000000000000000000081526004018080602001828103825260108152602001807f5061757361626c653a207061757365640000000000000000000000000000000081525060200191505060405180910390fd5b6000612e4f85858080601f016020809104026020016040519081016040528093929190818152602001838380828437600081840152601f19601f82011690508083019250505050505050613eb5565b905060d160008273ffffffffffffffffffffffffffffffffffffffff1673ffffffffffffffffffffffffffffffffffffffff168152602001908152602001600020600084815260200190815260200160002060009054906101000a900460ff169150509392505050565b6000603460008473ffffffffffffffffffffffffffffffffffffffff1673ffffffffffffffffffffffffffffffffffffffff16815260200190815260200160002060008373ffffffffffffffffffffffffffffffffffffffff1673ffffffffffffffffffffffffffffffffffffffff16815260200190815260200160002054905092915050565b612f48612622565b612fba576040517f08c379a00000000000000000000000000000000000000000000000000000000081526004018080602001828103825260208152602001807f4f776e61626c653a2063616c6c6572206973206e6f7420746865206f776e657281525060200191505060405180910390fd5b612fc38161417a565b50565b612fce612622565b613040576040517f08c379a00000000000000000000000000000000000000000000000000000000081526004018080602001828103825260208152602001807f4f776e61626c653a2063616c6c6572206973206e6f7420746865206f776e657281525060200191505060405180910390fd5b609c60009054906101000a900460ff16156130c3576040517f08c379a00000000000000000000000000000000000000000000000000000000081526004018080602001828103825260108152602001807f5061757361626c653a207061757365640000000000000000000000000000000081525060200191505060405180910390fd5b600160d360008373ffffffffffffffffffffffffffffffffffffffff1673ffffffffffffffffffffffffffffffffffffffff16815260200190815260200160002060006101000a81548160ff02191690831515021790555050565b6131266133d1565b6001151560d360008373ffffffffffffffffffffffffffffffffffffffff1673ffffffffffffffffffffffffffffffffffffffff16815260200190815260200160002060009054906101000a900460ff161515146131ec576040517f08c379a00000000000000000000000000000000000000000000000000000000081526004018080602001828103825260208152602001807f43616c6c6572206973206e6f7420616e20617070726f7665642076656e646f7281525060200191505060405180910390fd5b609c60009054906101000a900460ff161561326f576040517f08c379a00000000000000000000000000000000000000000000000000000000081526004018080602001828103825260108152602001807f5061757361626c653a207061757365640000000000000000000000000000000081525060200191505060405180910390fd5b600160d2600061327d6133d1565b73ffffffffffffffffffffffffffffffffffffffff1673ffffffffffffffffffffffffffffffffffffffff16815260200190815260200160002060006101000a81548160ff021916908315150217905550600060d360006132dc6133d1565b73ffffffffffffffffffffffffffffffffffffffff1673ffffffffffffffffffffffffffffffffffffffff16815260200190815260200160002060006101000a81548160ff02191690831515021790555060008090505b82518110156133cc57600160d1600061334a6133d1565b73ffffffffffffffffffffffffffffffffffffffff1673ffffffffffffffffffffffffffffffffffffffff168152602001908152602001600020600085848151811061339257fe5b6020026020010151815260200190815260200160002060006101000a81548160ff0219169083151502179055508080600101915050613333565b505050565b600033905090565b600073ffffffffffffffffffffffffffffffffffffffff168373ffffffffffffffffffffffffffffffffffffffff16141561345f576040517f08c379a00000000000000000000000000000000000000000000000000000000081526004018080602001828103825260248152602001806144256024913960400191505060405180910390fd5b600073ffffffffffffffffffffffffffffffffffffffff168273ffffffffffffffffffffffffffffffffffffffff1614156134e5576040517f08c379a000000000000000000000000000000000000000000000000000000000815260040180806020018281038252602281526020018061430a6022913960400191505060405180910390fd5b80603460008573ffffffffffffffffffffffffffffffffffffffff1673ffffffffffffffffffffffffffffffffffffffff16815260200190815260200160002060008473ffffffffffffffffffffffffffffffffffffffff1673ffffffffffffffffffffffffffffffffffffffff168152602001908152602001600020819055508173ffffffffffffffffffffffffffffffffffffffff168373ffffffffffffffffffffffffffffffffffffffff167f8c5be1e5ebec7d5bd14f71427d1e84f3dd0314c0f7b2291e5b200ac8c7c3b925836040518082815260200191505060405180910390a3505050565b600073ffffffffffffffffffffffffffffffffffffffff168373ffffffffffffffffffffffffffffffffffffffff161415613656576040517f08c379a00000000000000000000000000000000000000000000000000000000081526004018080602001828103825260258152602001806144006025913960400191505060405180910390fd5b600073ffffffffffffffffffffffffffffffffffffffff168273ffffffffffffffffffffffffffffffffffffffff1614156136dc576040517f08c379a00000000000000000000000000000000000000000000000000000000081526004018080602001828103825260238152602001806142c16023913960400191505060405180910390fd5b61372e81603360008673ffffffffffffffffffffffffffffffffffffffff1673ffffffffffffffffffffffffffffffffffffffff1681526020019081526020016000205461387090919063ffffffff16565b603360008573ffffffffffffffffffffffffffffffffffffffff1673ffffffffffffffffffffffffffffffffffffffff168152602001908152602001600020819055506137c381603360008573ffffffffffffffffffffffffffffffffffffffff1673ffffffffffffffffffffffffffffffffffffffff168152602001908152602001600020546138f990919063ffffffff16565b603360008473ffffffffffffffffffffffffffffffffffffffff1673ffffffffffffffffffffffffffffffffffffffff168152602001908152602001600020819055508173ffffffffffffffffffffffffffffffffffffffff168373ffffffffffffffffffffffffffffffffffffffff167fddf252ad1be2c89b69c2b068fc378daa952ba7f163c4a11628f55a4df523b3ef836040518082815260200191505060405180910390a3505050565b6000828211156138e8576040517f08c379a000000000000000000000000000000000000000000000000000000000815260040180806020018281038252601e8152602001807f536166654d6174683a207375627472616374696f6e206f766572666c6f77000081525060200191505060405180910390fd5b600082840390508091505092915050565b600080828401905083811015613977576040517f08c379a000000000000000000000000000000000000000000000000000000000815260040180806020018281038252601b8152602001807f536166654d6174683a206164646974696f6e206f766572666c6f77000000000081525060200191505060405180910390fd5b8091505092915050565b6000808314156139945760009050613a01565b60008284029050828482816139a557fe5b04146139fc576040517f08c379a00000000000000000000000000000000000000000000000000000000081526004018080602001828103825260218152602001806143906021913960400191505060405180910390fd5b809150505b92915050565b600073ffffffffffffffffffffffffffffffffffffffff168273ffffffffffffffffffffffffffffffffffffffff161415613aaa576040517f08c379a000000000000000000000000000000000000000000000000000000000815260040180806020018281038252601f8152602001807f45524332303a206d696e7420746f20746865207a65726f20616464726573730081525060200191505060405180910390fd5b613abf816036546138f990919063ffffffff16565b603681905550613b1781603360008573ffffffffffffffffffffffffffffffffffffffff1673ffffffffffffffffffffffffffffffffffffffff168152602001908152602001600020546138f990919063ffffffff16565b603360008473ffffffffffffffffffffffffffffffffffffffff1673ffffffffffffffffffffffffffffffffffffffff168152602001908152602001600020819055508173ffffffffffffffffffffffffffffffffffffffff16600073ffffffffffffffffffffffffffffffffffffffff167fddf252ad1be2c89b69c2b068fc378daa952ba7f163c4a11628f55a4df523b3ef836040518082815260200191505060405180910390a35050565b600073ffffffffffffffffffffffffffffffffffffffff168273ffffffffffffffffffffffffffffffffffffffff161415613c4a576040517f08c379a00000000000000000000000000000000000000000000000000000000081526004018080602001828103825260218152602001806143df6021913960400191505060405180910390fd5b613c5f8160365461387090919063ffffffff16565b603681905550613cb781603360008573ffffffffffffffffffffffffffffffffffffffff1673ffffffffffffffffffffffffffffffffffffffff1681526020019081526020016000205461387090919063ffffffff16565b603360008473ffffffffffffffffffffffffffffffffffffffff1673ffffffffffffffffffffffffffffffffffffffff16815260200190815260200160002081905550600073ffffffffffffffffffffffffffffffffffffffff168273ffffffffffffffffffffffffffffffffffffffff167fddf252ad1be2c89b69c2b068fc378daa952ba7f163c4a11628f55a4df523b3ef836040518082815260200191505060405180910390a35050565b803073ffffffffffffffffffffffffffffffffffffffff16311015613df1576040517f08c379a000000000000000000000000000000000000000000000000000000000815260040180806020018281038252601d8152602001807f416464726573733a20696e73756666696369656e742062616c616e636500000081525060200191505060405180910390fd5b60008273ffffffffffffffffffffffffffffffffffffffff168260405180600001905060006040518083038185875af1925050503d8060008114613e51576040519150601f19603f3d011682016040523d82523d6000602084013e613e56565b606091505b5050905080613eb0576040517f08c379a000000000000000000000000000000000000000000000000000000000815260040180806020018281038252603a81526020018061432c603a913960400191505060405180910390fd5b505050565b6000606082905060008090506000806000600290505b602a8110156141015761010084029350848181518110613ee757fe5b602001015160f81c60f81b60f81c60ff169250846001820181518110613f0957fe5b602001015160f81c60f81b60f81c60ff16915060618373ffffffffffffffffffffffffffffffffffffffff1610158015613f5a575060668373ffffffffffffffffffffffffffffffffffffffff1611155b15613f6a57605783039250614004565b60418373ffffffffffffffffffffffffffffffffffffffff1610158015613fa8575060468373ffffffffffffffffffffffffffffffffffffffff1611155b15613fb857603783039250614003565b60308373ffffffffffffffffffffffffffffffffffffffff1610158015613ff6575060398373ffffffffffffffffffffffffffffffffffffffff1611155b15614002576030830392505b5b5b60618273ffffffffffffffffffffffffffffffffffffffff1610158015614042575060668273ffffffffffffffffffffffffffffffffffffffff1611155b15614052576057820391506140ec565b60418273ffffffffffffffffffffffffffffffffffffffff1610158015614090575060468273ffffffffffffffffffffffffffffffffffffffff1611155b156140a0576037820391506140eb565b60308273ffffffffffffffffffffffffffffffffffffffff16101580156140de575060398273ffffffffffffffffffffffffffffffffffffffff1611155b156140ea576030820391505b5b5b81601084020184019350600281019050613ecb565b5082945050505050919050565b600080303b90506000811491505090565b6001603560008373ffffffffffffffffffffffffffffffffffffffff1673ffffffffffffffffffffffffffffffffffffffff16815260200190815260200160002060006101000a81548160ff02191690831515021790555050565b600073ffffffffffffffffffffffffffffffffffffffff168173ffffffffffffffffffffffffffffffffffffffff161415614200576040517f08c379a00000000000000000000000000000000000000000000000000000000081526004018080602001828103825260268152602001806142e46026913960400191505060405180910390fd5b8073ffffffffffffffffffffffffffffffffffffffff16606960009054906101000a900473ffffffffffffffffffffffffffffffffffffffff1673ffffffffffffffffffffffffffffffffffffffff167f8be0079c531659141344cd1fd0a4f28419497f9722a3daafe3b4186f6b6457e060405160405180910390a380606960006101000a81548173ffffffffffffffffffffffffffffffffffffffff021916908373ffffffffffffffffffffffffffffffffffffffff1602179055505056fe45524332303a207472616e7366657220746f20746865207a65726f20616464726573734f776e61626c653a206e6577206f776e657220697320746865207a65726f206164647265737345524332303a20617070726f766520746f20746865207a65726f2061646472657373416464726573733a20756e61626c6520746f2073656e642076616c75652c20726563697069656e74206d61792068617665207265766572746564596f752063616e6e6f7420646f6e61746520536f6369616c546f6b656e7320746f20796f757273656c66536166654d6174683a206d756c7469706c69636174696f6e206f766572666c6f77436f6e747261637420696e7374616e63652068617320616c7265616479206265656e20696e697469616c697a656445524332303a206275726e2066726f6d20746865207a65726f206164647265737345524332303a207472616e736665722066726f6d20746865207a65726f206164647265737345524332303a20617070726f76652066726f6d20746865207a65726f2061646472657373a165627a7a723058207e5f9fedd745462dc3af617413cff37c5682603d11b2fbe1eba4f6467074fe8c0029",
  "source": "pragma solidity ^0.5.8;\n\nimport \"./ERC20.sol\";\nimport \"./Pausable.sol\";\nimport \"./Initializable.sol\";\nimport \"./Context.sol\";\nimport \"./Address.sol\";\n\n/**\n * @dev Implementation of the Social Token.\n *\n * This ...\n */\ncontract Social is ERC20, Pausable {\n    using SafeMath for uint256;\n\n    uint public tokenPrice;\n    uint public voluntaryGasAdvance;\n\n    // EAN is 13 digits long\n    // uint max is 4294967295 (9 digits)\n    // string array is not supported solidity-wise\n    mapping (address=>mapping(uint=>bool)) private vendorItemBlacklistMap;\n    mapping (address=>bool) private vendorMap;\n    mapping (address=>bool) private approvedVendorMap;\n\n    modifier onlyVendor(address vendor) {\n        require(vendorMap[vendor]==true, \"Caller is not a vendor\");\n        _;\n    }\n\n    modifier onlyApprovedVendor(address vendor) {\n        require(approvedVendorMap[vendor]==true, \"Caller is not an approved vendor\");\n        _;\n    }\n\n    function initialize() public initializer {\n        Pausable.initializePausable(_msgSender());\n        vendorMap[0x96c65A2b5Ef50bc13f227A1f3c285e5045a4664B] = true;\n        vendorMap[0x9Ea5cB0a3162a50BF5cdd694451A21B557b1967D] = true;\n        vendorMap[0x30DFf58C12349297fea380A95B59211367dE8e72] = true;\n\n        // ID 10: Weltenburger Urtyp Hell Beer\n        vendorItemBlacklistMap[0x96c65A2b5Ef50bc13f227A1f3c285e5045a4664B][10] = true;\n        // ID 11: Marlboro Red Cigarettes\n        vendorItemBlacklistMap[0x96c65A2b5Ef50bc13f227A1f3c285e5045a4664B][11] = true;\n        // ID 12: Ferrero Mon Chri Chocolates\n        vendorItemBlacklistMap[0x96c65A2b5Ef50bc13f227A1f3c285e5045a4664B][12] = true;\n        tokenPrice = 6 szabo;\n\n        /**\n         * Avg. spent token per purchase = 4000, avg. bought unique items per purchase = 5\n         * 4000 Tokens/Purchase --> 172 Gwei/Token\n         * 69053 Gas/SpentTransaction\n         */\n        voluntaryGasAdvance = 220000000000 wei; // == 220 Gwei\n    }\n\n    function buyToken(uint amount) external payable whenNotPaused {\n        require(msg.value >= amount.mul(tokenPrice.add(voluntaryGasAdvance)), \"Not enough funds sent\");\n        // TODO Overflow check\n        _mint(_msgSender(), amount);\n    }\n\n    function donateToken(uint amount, string calldata receiverAddress) external whenNotPaused notHomeless(_msgSender()) {\n        address parsedAddress = parseAddr(receiverAddress);\n        require(_msgSender() != parsedAddress, \"You cannot donate SocialTokens to yourself\");\n        ERC20.setHomelessMap(parsedAddress);\n        _transfer(_msgSender(), parsedAddress, amount);\n        address payable payableReceiver = address(uint160(parsedAddress));\n        Address.sendValue(payableReceiver, voluntaryGasAdvance.mul(amount));\n    }\n    // TODO must be onlyHomeless in the future, for testing purpose only right now\n    function spendToken(uint amount, string calldata vendorAddress, uint[] calldata basketItems) external onlyVendor(parseAddr(vendorAddress)) whenNotPaused {\n        address parsedAddress = parseAddr(vendorAddress);\n        for (uint i = 0; i < basketItems.length; i++) {\n            // TODO\n            require (!vendorItemBlacklistMap[parsedAddress][basketItems[i]], \"No alc, no cigarettes!\");\n        }\n        _transfer(_msgSender(), parsedAddress, amount);\n    }\n\n    function withdraw(uint amount) external onlyVendor(_msgSender()) whenNotPaused {\n        require(address(this).balance >= tokenPrice.mul(amount), \"Not enough funds available\");\n        _burn(_msgSender(), amount);\n        address payable payableVendor = address(uint160(_msgSender()));\n        Address.sendValue(payableVendor, tokenPrice.mul(amount));\n    }\n\n    function approveVendor(address vendorAddress) public onlyOwner whenNotPaused {\n        approvedVendorMap[vendorAddress] = true;\n    }\n\n    // not tested yet\n    function registerVendor(uint[] memory blacklist) public onlyApprovedVendor(_msgSender()) whenNotPaused {\n        vendorMap[_msgSender()] = true;\n        approvedVendorMap[_msgSender()] = false;\n        for (uint i = 0; i < blacklist.length; i++) {\n            vendorItemBlacklistMap[_msgSender()][blacklist[i]] = true;\n        }\n    }\n\n    // not tested yet\n    function deleteVendor(address vendorAddress) public onlyOwner whenNotPaused {\n        vendorMap[vendorAddress] = false;\n        approvedVendorMap[vendorAddress] = false;\n    }\n\n    // not tested yet\n    function addToBlacklist(uint[] calldata newItems) external onlyVendor(_msgSender()) whenNotPaused {\n        for (uint i = 0; i < newItems.length; i++) {\n            vendorItemBlacklistMap[_msgSender()][newItems[i]] = true;\n        }\n    }\n\n    // not tested yet\n    function deleteFromBlacklist(uint[] calldata oldItems) external onlyVendor(_msgSender()) whenNotPaused {\n        for (uint i = 0; i < oldItems.length; i++) {\n            vendorItemBlacklistMap[_msgSender()][oldItems[i]] = false;\n        }\n    }\n\n    function getBlacklistItem(string calldata vendorAddress, uint itemID) external view whenNotPaused returns(bool) {\n        address parsedAddress = parseAddr(vendorAddress);\n        return vendorItemBlacklistMap[parsedAddress][itemID];\n    }\n\n    /**\n     * @dev parse string to adress\n     * @param _a string that will be parsed\n     */\n    function parseAddr(string memory _a) internal pure returns (address _parsedAddress) {\n        bytes memory tmp = bytes(_a);\n        uint160 iaddr = 0;\n        uint160 b1;\n        uint160 b2;\n        for (uint i = 2; i < 2 + 2 * 20; i += 2) {\n            iaddr *= 256;\n            b1 = uint160(uint8(tmp[i]));\n            b2 = uint160(uint8(tmp[i + 1]));\n            if ((b1 >= 97) && (b1 <= 102)) {\n                b1 -= 87;\n            } else if ((b1 >= 65) && (b1 <= 70)) {\n                b1 -= 55;\n            } else if ((b1 >= 48) && (b1 <= 57)) {\n             b1 -= 48;\n           }\n            if ((b2 >= 97) && (b2 <= 102)) {\n                b2 -= 87;\n            } else if ((b2 >= 65) && (b2 <= 70)) {\n                b2 -= 55;\n            } else if ((b2 >= 48) && (b2 <= 57)) {\n             b2 -= 48;\n            }\n            iaddr += (b1 * 16 + b2);\n        }\n        return address(iaddr);\n    }\n\n    function () external {\n\n    }\n}",
  "sourcePath": "/Users/JoRo/LocalProgramming/Repositories/SocialTokenSW/contracts/Social.sol",
  "compiler": {
    "name": "solc",
    "version": "0.5.8+commit.23d335f2.Emscripten.clang"
  },
  "schemaVersion": "3.0.11",
  "updatedAt": "2020-02-24T16:23:21.061Z",
  "devdoc": {
    "details": "Implementation of the Social Token. * This ...",
    "methods": {
      "allowance(address,address)": {
        "details": "See `IERC20.allowance`."
      },
      "approve(address,uint256)": {
        "details": "See `IERC20.approve`.     * Requirements:     * - `spender` cannot be the zero address."
      },
      "balanceOf(address)": {
        "details": "See `IERC20.balanceOf`."
      },
      "decreaseAllowance(address,uint256)": {
        "details": "Atomically decreases the allowance granted to `spender` by the caller.     * This is an alternative to `approve` that can be used as a mitigation for problems described in `IERC20.approve`.     * Emits an `Approval` event indicating the updated allowance.     * Requirements:     * - `spender` cannot be the zero address. - `spender` must have allowance for the caller of at least `subtractedValue`."
      },
      "increaseAllowance(address,uint256)": {
        "details": "Atomically increases the allowance granted to `spender` by the caller.     * This is an alternative to `approve` that can be used as a mitigation for problems described in `IERC20.approve`.     * Emits an `Approval` event indicating the updated allowance.     * Requirements:     * - `spender` cannot be the zero address."
      },
      "initializeOwnable(address)": {
        "details": "Initializes the contract setting the deployer as the initial owner."
      },
      "initializePausable(address)": {
        "details": "Initializes the contract in unpaused state. Assigns the Pauser role to the deployer."
      },
      "isOwner()": {
        "details": "Returns true if the caller is the current owner."
      },
      "owner()": {
        "details": "Returns the address of the current owner."
      },
      "pause()": {
        "details": "Called by a pauser to pause, triggers stopped state."
      },
      "paused()": {
        "details": "Returns true if the contract is paused, and false otherwise."
      },
      "renounceOwnership()": {
        "details": "Leaves the contract without owner. It will not be possible to call `onlyOwner` functions anymore. Can only be called by the current owner.     * > Note: Renouncing ownership will leave the contract without an owner, thereby removing any functionality that is only available to the owner."
      },
      "totalSupply()": {
        "details": "See `IERC20.totalSupply`."
      },
      "transfer(address,uint256)": {
        "details": "See `IERC20.transfer`.     * Requirements:     * - `recipient` cannot be the zero address. - the caller must have a balance of at least `amount`."
      },
      "transferFrom(address,address,uint256)": {
        "details": "See `IERC20.transferFrom`.     * Emits an `Approval` event indicating the updated allowance. This is not required by the EIP. See the note at the beginning of `ERC20`;     * Requirements: - `sender` and `recipient` cannot be the zero address. - `sender` must have a balance of at least `value`. - the caller must have allowance for `sender`'s tokens of at least `amount`."
      },
      "transferOwnership(address)": {
        "details": "Transfers ownership of the contract to a new account (`newOwner`). Can only be called by the current owner."
      },
      "unpause()": {
        "details": "Called by a pauser to unpause, returns to normal state."
      }
    }
  },
  "userdoc": {
    "methods": {}
  }
}